:020000040800F2
:1000000000000120C5020008CD020008D10200084E
:1000100045030008490300089103000800000000A0
:10002000000000000000000000000000D9030008EC
:10003000DD03000800000000E1030008E5030008FC
:10004000F5030008F5030008F5030008F5030008B0
:10005000F5030008F5030008F5030008F5030008A0
:10006000F5030008F5030008F5030008010800087F
:10007000110800082108000831080008410800089C
:100080005108000861080008F5030008000000009E
:10009000000000000000000000000000F503000860
:1000A000F5030008F5030008F5030008F503000850
:1000B000F5030008F5030008F5030008F503000840
:1000C000F5030008F5030008F5030008F503000830
:1000D000F5030008B50C0008C50C0008000000007E
:1000E000F5030008F5030008F50300080000000010
:1000F000000000000000000000000000710800087F
:1001000000000000F5030008F5030008F5030008EF
:1001100000000000000000000000000000000000DF
:100120008108000891080008A1080008B10800082B
:10013000C1080008000000000000000000000000EE
:10014000000000000000000000000000F5030008AF
:10015000D1080008E1080008F1080008D50C0008E3
:10016000F5030008F503000800000000000000008F
:10017000000000000000000000000000000000007F
:1001800000000000F503000800000000000000006F
:10019000F503000800B583B000F0BCF9384B394ACC
:1001A0001360394A136039490CE00A684B6801F161
:1001B0000C04886803E01168196004330432984223
:1001C000F9D82146324B9942EFD32E4B1A68314B66
:1001D0009A4204D12C4B1A682F4B9A4200D0FEE76A
:1001E000274B2E4A13602E4A13602E4B0AE0194605
:1001F00051F8082B5B6802E00020106004329A423C
:10020000FAD30B46284A9342F1D3244B1B6813B907
:10021000234B1B6803B1FEE700F088F9694601A88B
:1002200000F022F9214C224B1C1BA410002504E0F5
:100230001E4B53F8253098470135AC42F8DC1D4C75
:100240001D4B1C1BA410002504E01A4B53F825304D
:1002500098470135AC42F8DC0099019800F092FF14
:100260000546164C164B1C1BA41004E0013C134B16
:1002700053F824309847002CF8DC284600F0D0F8DA
:10028000BABADECA0000002074000020F80300089B
:100290001004000878563412325476987800002002
:1002A000FC010020100400082004000820040008BD
:1002B000200400082004000820040008200400088E
:1002C0002004000808B5FFF765FF00BF00BEFEE789
:1002D0001EF0040F0CBFEFF30880EFF309807146A6
:1002E000414A10472DE9F04182B004468846134B3D
:1002F0005E6B9F6B9D6A1B6B13F0020F0DD00F4B53
:10030000DB6A002B09DA4BF6AB6100F08BF920B108
:100310004FF00042094BDA620CE0094800F0ACF8FB
:10032000CDF800803B4632462946204600F002F9CF
:1003300000BEFEE702B0BDE8F08100BF00ED00E0C6
:10034000041F000800BEFEE71EF0040F0CBFEFF311
:100350000880EFF309807146244A10472DE9F041E7
:1003600082B004468846084B5E6B9F6B9D6A0748C7
:1003700000F082F8CDF800803B4632462946204600
:1003800000F0D8F800BEFEE700ED00E0141F000802
:100390001EF0040F0CBFEFF30880EFF309807146E5
:1003A000134A10472DE9F04182B004468846084BB5
:1003B0005E6B9F6B9D6A074800F05EF8CDF8008089
:1003C0003B4632462946204600F0B4F800BEFEE720
:1003D00000ED00E0201F000800BEFEE700BEFEE7C3
:1003E00000BEFEE770470000E50200085D0300085C
:0803F000A503000800BEFEE7B2
:1003F800A81F00080000002078000020A81F00089F
:10040800000000100000001078000020000200200A
:080418000000001000000010BC
:10042000FEE700BF08B50D4B1B6813B90C4A0B4B18
:100430001A600A4B1A68C31C23F0030313440949CA
:100440008B4206D901F03CF80C2303604FF0FF30DB
:1004500008BD02490B60104608BD00BF7C000020AB
:100460000002002000FC002001230360014B0B6010
:10047000704700BF040000200FB400B583B004AB88
:1004800053F8042B01938021064801F04BF8002813
:1004900003DD0146034800F039F803B05DF804EBD2
:1004A00004B07047840000202DE9F04385B0044675
:1004B0000F46435613BB042528462146ABBE0446CF
:1004C0001FE03546102E28BF1025002306E014F942
:1004D000011B04AA1A4402F8101C0133AB42F6D3E4
:1004E00004AA1344002203F8102CE9464FF0040834
:1004F00040464946ABBE8046761B00E00E46002EC5
:10050000DFD1384605B0BDE8F08300BF08B5FFF77E
:10051000CBFF08BD08B500F095F8024B024A9A607F
:1005200008BD00BF00ED00E00000000808B500F0C5
:10053000A9F808BDF8B504460D4617461E462648DC
:10054000FFF79AFF21682548FFF796FF6168244866
:10055000FFF792FFA1682348FFF78EFFE16822486A
:10056000FFF78AFF21692148FFF786FF616920486C
:10057000FFF782FFA1691F48FFF77EFFE1691E4870
:10058000FFF77AFF1D48FFF777FF29461C48FFF762
:1005900073FF1C4CE16A1C48FFF76EFF216B1B4880
:1005A000FFF76AFFE16B1A48FFF766FF15F0800F4F
:1005B00003D039461748FFF75FFF15F4004F03D00B
:1005C00031461548FFF758FF1448FFF755FF0699C5
:1005D0001348FFF751FFF8BDE81D0008F81D00089B
:1005E000081E0008181E0008281E0008381E0008F3
:1005F000481E0008581E0008681E0008781E0008E3
:10060000841E000800ED00E0941E0008A41E0008EF
:10061000B41E0008C41E0008D41E0008E41E000812
:10062000EC1E000883691A888A4207D10268033ADF
:10063000012A05D8023383610120704700207047EA
:10064000002070470C4B1A6842F001021A6000212A
:1006500099601A6822F0847222F480321A60074A84
:100660005A601A6822F480221A60D9604FF0006242
:10067000034B9A60704700BF0038024010300024DE
:1006800000ED00E0224B9B6803F00C03042B07D025
:10069000082B09D0002B2DD11E4A1F4B1A602CE0CD
:1006A0001E4A1D4B1A6028E0194B5A685B6803F01C
:1006B0003F0312F4800F09D0184AB2FBF3F2144B37
:1006C0005B68C3F3881303FB02F208E0114AB2FB34
:1006D000F3F30F4A5168C1F3881101FB03F20C4B8D
:1006E0005B68C3F3014301335B00B2FBF3F30A4AD7
:1006F000136002E0074A084B1A60054B9B68C3F37E
:100700000313074AD15C044A1368CB401360704757
:10071000003802400024F4000C00002040787D01E5
:10072000301F00080346002857D0002957D0304812
:10073000814227D1072A54D8DFE802F004080C10C0
:1007400014181C202B4A136000207047294A53605C
:1007500000207047274A936000207047254AD360E5
:1007600000207047234A136100207047214A5361DB
:10077000002070471F4A9361002070471D4AD361D3
:10078000002070471C4881422DD1072A2DD8DFE870
:1007900002F004080C1014181C20184A13600020E2
:1007A0007047164A536000207047144A9360002037
:1007B0007047124AD36000207047104A136100202E
:1007C00070470E4A5361002070470C4A9361002025
:1007D00070470A4AD3610020704706207047062000
:1007E000704700207047052070470020704700BF09
:1007F000006002404C010020006402406C010020B7
:1008000008B5024B1B6803B1984708BD4C01002096
:1008100008B5024B5B6803B1984708BD4C01002046
:1008200008B5024B9B6803B1984708BD4C010020F6
:1008300008B5024BDB6803B1984708BD4C010020A6
:1008400008B5024B1B6903B1984708BD4C01002055
:1008500008B5024B5B6903B1984708BD4C01002005
:1008600008B5024B9B6903B1984708BD4C010020B5
:1008700008B5024BDB6903B1984708BD4C01002065
:1008800008B5024B1B6803B1984708BD6C010020F6
:1008900008B5024B5B6803B1984708BD6C010020A6
:1008A00008B5024B9B6803B1984708BD6C01002056
:1008B00008B5024BDB6803B1984708BD6C01002006
:1008C00008B5024B1B6903B1984708BD6C010020B5
:1008D00008B5024B5B6903B1984708BD6C01002065
:1008E00008B5024B9B6903B1984708BD6C01002015
:1008F00008B5024BDB6903B1984708BD6C010020C5
:1009000070B4002800F08780034602780F2A00F2B6
:10091000848041684548814213D000F5806081425F
:100920000FD000F5806081420BD000F580608142DD
:1009300007D000F58060814203D000F5406081421D
:100940006DD10C685200032000FA02F524EA050577
:100950005C78044004FA02F22A430A605D68696820
:100960001A780124944021EA04045978C1F38001E3
:1009700001FA02F222436A605D68E9681A7852005F
:1009800000FA02F421EA04045978C1F3C10101FA22
:1009900002F22243EA605E68B5681A78540000FAF1
:1009A00004F125EA01009A78A2401043B0605A7819
:1009B00002F00302022A34D11A78072A13D85868A1
:1009C00092000F2101FA02F2016A21EA020101629A
:1009D00059689A681B789B0002FA03F30A6A13436A
:1009E0000B62012020E0072A1DD95868083A9200BE
:1009F0000F2101FA02F2416A21EA020141625968BB
:100A00009A681B78083B9B0002FA03F34A6A134377
:100A10004B62012008E0052006E0022004E00320EC
:100A200002E0012000E0012070BC7047000002409D
:100A3000F0280AD8420900F01F00012303FA00F051
:100A4000034B43F82200002070470120704700BF8D
:100A500000E100E030B4002403F0010554EA050190
:100A60001DD003281DD8DFE800F002080E140E493F
:100A70000B6C1A430A64012014E00B494B6C1A43B7
:100A80004A6401200EE008490B6B1A430A630120F7
:100A900008E0054B596B0A435A63012002E003202A
:100AA00000E0042030BC7047003802402DE9F047D8
:100AB0000446056815B14FF0000A01E04FF0020A44
:100AC000638A43BBD4E902894FEA89034FEA880667
:100AD00043EA98777B0143EAD6637201921B63EB8A
:100AE000070312EB080043EB0901CB0043EA507304
:100AF000C20010461946228A1201002300F054FB5E
:100B000002462D4BA3FB00139B094FF47A7101FBA6
:100B100013031B0129E0B3F5004F24D1D4E9026788
:100B2000BB00B00043EA96714B0143EAD063420137
:100B3000101A63EB010180197941CB0043EA50732D
:100B4000C20010461946228AD200002300F02CFB76
:100B50000246194BA3FB00139B094FF47A7101FB6A
:100B60001303DB0001E000231A4603F5FA73124970
:100B7000A1FB0303A1FB02129209120142EA9313A3
:100B8000AB60EB6823F4304323F0EC03EB60628A44
:100B9000A18A268B638BA08B0A4332431343034302
:100BA00043F40053EB602B6923F440531B041B0CEC
:100BB0002B615046BDE8F087D34D6210024608B164
:100BC000002000E00220136813F0200FFBD05368D0
:100BD0000B60704749B110F47E4F08D10A6812F0DB
:100BE000800F06D048600020704702207047032025
:100BF00070470120704700BF38B1026812F0200F23
:100C000005D043680B700020704702207047002019
:100C1000704700BF006800F040007047006800F0B7
:100C20002000704738B1036823F040031B041B0CFD
:100C30000360002070470220704700BF38B103688E
:100C400023F020031B041B0C0360002070470220CC
:100C5000704700BF70B139B101290DD1C26842F0AF
:100C60004002C26000207047C26822F04002C260A9
:100C700000207047022070470020704770B139B1E2
:100C800001290DD1C26842F02002C26000207047E5
:100C9000C26822F02002C260002070470220704724
:100CA0000020704710B1024A42F82100022070472C
:100CB0008C01002008B5024B1B6803B1984708BDA2
:100CC0008C01002008B5024B5B6803B1984708BD52
:100CD0008C01002008B5024B9B6803B1984708BD02
:100CE0008C010020704700BF704700BF704700BFF5
:100CF00010B52548FFF78EFF18B3244B1B78012B46
:100D00001FD1234BDA889B889A4211D100211F4BB7
:100D100019701F4BD98099801B4C2046FFF79AFF12
:100D20002046FFF77FFF1B4B1B6853B1984708E035
:100D3000174C23681449985CFFF74CFFE388013394
:100D4000E3801148FFF76AFFE8B1134B1B78012BD2
:100D500019D1124C2168E38819440B48FFF74CFF66
:100D6000E38801339BB2E380A28893420BD9002130
:100D7000094B1970E180A1800348FFF77FFF084B02
:100D80001B6803B1984710BD001001403C010020D2
:100D90000C010020E4010020290100202001002096
:100DA000D801002038B52648FFF734FF01281ED1AE
:100DB000244BDA889B889A420BD1224B0021D980A0
:100DC00099802148FFF746FF204B9B687BB19847ED
:100DD0000DE01C4B1B681A4C2146985CFFF7FAFE8D
:100DE0001B4AD3880133D3802046FFF71BFF1448EA
:100DF000FFF714FF18B3174B1B78012B1FD1164BAD
:100E0000DA889B889A420DD10021124B1970124B3F
:100E1000D98099800A48FFF731FF104B1B6873B1E6
:100E2000984738BD0C4C2168054D11442846FFF702
:100E3000E3FEE3880133E3802846FFF7FFFE38BD79
:100E4000001401402C01002000440040E401002077
:100E50000C0100201401002018010020D8010020FE
:100E600038B52648FFF7D6FE01281DD1244BDA8875
:100E70009B889A420BD1224B0021D98099801F4830
:100E8000FFF7E8FE1F4B5B6873B198470CE01C4C02
:100E900023681A4D2946985CFFF79CFEE3880133CE
:100EA000E3802846FFF7BEFE1448FFF7B7FE20B3E5
:100EB000154B1B78012B20D1144BDA889B889A4262
:100EC0000DD10021104B1970104BD98099800B481F
:100ED000FFF7D4FE0E4B5B687BB1984738BD0B4BD8
:100EE0001968064C11442046FFF786FE094AD3884C
:100EF0000133D3802046FFF7A1FE38BD00440040F7
:100F000004010020E4010020280100203401002019
:100F1000D80100202001002070B590B00024BAE074
:100F20006D4EA2001319D900731875580695198AC9
:100F3000ADF82810998AADF82C10198BADF8301047
:100F4000D98BADF82E10598AADF82A10998BADF8CF
:100F50003410598BADF83210D3E90201CDE9080104
:100F60001319DA003244138CADF838305B4B9D42D4
:100F700009D003F580639D425DD0A3F550439D42A7
:100F800040F084802BE0012201230220FFF762FD64
:100F900002238DF80D305249049109228DF80C205E
:100FA000072205928DF80E308DF8013001910A214B
:100FB0008DF8001002928DF8023003A8FFF7A0FC14
:100FC0006846FFF79DFC102201230120FFF742FD38
:100FD0002520FFF72DFD4148FFF724FE56E00122B2
:100FE00001230220FFF736FD02238DF80D303C4926
:100FF000049101228DF80C20072205928DF80E3005
:101000008DF8013001918DF8003002928DF8023098
:1010100003A8FFF775FC6846FFF772FC4FF4003237
:1010200001230020FFF716FD2620FFF701FD2D48C4
:10103000FFF7F8FD2AE0042201230220FFF70AFD52
:1010400002238DF80D302849049106228DF80C20DA
:10105000082205928DF80E308DF80130019107219C
:101060008DF8001002928DF8023003A8FFF748FCBB
:101070006846FFF745FC202201230120FFF7EAFC28
:101080004720FFF7D5FC1948FFF7CCFD06A8FFF76E
:101090000DFD0134E4B2002C3FF442AF00211448AE
:1010A000FFF700FE01211348FFF7FCFD0221124863
:1010B000FFF7F8FD114C052221461148FFF732FBDE
:1010C000022221460F48FFF72DFB052221460E483C
:1010D000FFF728FB10B070BD401F00080010014052
:1010E000000002400044004000080240001401409B
:1010F000F10C0008610E0008A50D00080060024018
:10110000E50C0008E90C0008ED0C000870B5154668
:101110001AE0012D0AD015B1022D0ED013E0461CA5
:1011200001460C48FFF74AFD30460CE0461C0146DC
:101130000948FFF743FD304605E0461C01460748D5
:10114000FFF73CFD304621464B1E9CB20029E0D102
:1011500070BD00BF00100140004400400014014079
:1011600010B1024A42F8210002207047D801002045
:1011700008B502490248FFF77FF908BDF0010020D9
:10118000681F000808B5FFF7C7FE00210448FFF7F5
:10119000E7FF00220B210348FFF7B8FFFEE700BF7F
:1011A00071110008F001002053B94AB9002908BFA5
:1011B00000281CBF4FF0FF314FF0FF3000F07EB928
:1011C000ADF1080C6DE904CE00F006F8DDF804E09E
:1011D000DDE9022304B070472DE9F0478C460E4646
:1011E0000446089D002B50D18A4217466CD9B2FAAA
:1011F00082FEBEF1000F0BD0CEF1200420FA04F4E1
:1012000001FA0EF644EA060C02FA0EF700FA0EF4A2
:101210004FEA1749220CBCFBF9F01FFA87F809FBCB
:1012200010C642EA064600FB08F3B34209D9F61994
:1012300000F1FF3280F02281B34240F21F81023878
:101240003E44F61AA2B2B6FBF9F309FB136642EA72
:10125000064403FB08F8A04509D9E41903F1FF325D
:1012600080F00A81A04540F20781023B3C44C8EB74
:10127000040443EA00400021002D62D024FA0EF459
:1012800000232C606B60BDE8F0878B4207D9002DEE
:1012900055D0002185E841000846BDE8F087B3FA43
:1012A00083F1002940F09080B34202D3824200F2E1
:1012B000F880841A66EB03060120B446002D40D066
:1012C00085E81010BDE8F08712B90127B7FBF2F7E7
:1012D000B7FA87FEBEF1000F35D1F31B4FEA17486E
:1012E0001FFA87FC0121B3FBF8F0220C08FB103633
:1012F00042EA06460CFB00F3B34207D9F61900F1A7
:10130000FF3202D2B34200F2CE801046F61AA2B2E9
:10131000B6FBF8F308FB136642EA06440CFB03FC39
:10132000A44507D9E41903F1FF3202D2A44500F223
:10133000B5801346CCEB040443EA00409CE7294601
:101340002846BDE8F087CEF1200106FA0EF307FA31
:101350000EF720FA01F94FEA1748CE4049EA03098F
:10136000B6FBF8FA4FEA194408FB1A661FFA87FC25
:1013700044EA06430AFB0CF29A4200FA0EF40AD938
:10138000DB190AF1FF3180F087809A4240F28480B5
:10139000AAF1020A3B449B1A1FFA89F9B3FBF8F140
:1013A00008FB113349EA034301FB0CF69E4207D9BF
:1013B000DB1901F1FF326BD29E4269D902393B44FD
:1013C0009B1B41EA0A418EE7C1F1200E22FA0EF47E
:1013D0008B40234320FA0EF706FA01F44FEA134C30
:1013E00026FA0EF63C43B6FBFCF9270C0CFB1966FB
:1013F0001FFA83F847EA064609FB08F7B74202FAE4
:1014000001F200FA01FA08D9F61809F1FF3041D2C9
:10141000B7423FD9A9F102091E44F61BA0B2B6FBA0
:10142000FCF40CFB146640EA064704FB08F8B845D8
:1014300007D9FF1804F1FF3028D2B84526D9023C5D
:101440001F4444EA0940C8EB0707A0FB02894F4547
:1014500044464E4614D329D065B3BAEB040367EB78
:10146000060707FA0EFECB40CF404EEA030385E89D
:1014700088000021BDE8F0871346F8E61046E0E654
:10148000B8EB020469EB03060138E5E70446D8E748
:10149000114695E78146C0E78A467CE7023B3C441B
:1014A00048E708460AE702383E442FE7C245E7D33B
:1014B0003E46D1E72946BDE8F08700BF704700BF30
:1014C000014B1868704700BF7000002030B5141E33
:1014D00005469BB0184604DA8B232B604FF0FF3093
:1014E0001DE04FF40273ADF80C3014BF04F1FF336C
:1014F0002346029305934FF6FF7300910491ADF8D4
:101500000E3002461E9B6946284600F073F8431CC5
:10151000BCBF8B232B6014B1009B00221A701BB040
:1015200030BD000007B5009313460A460146034844
:101530000068FFF7CBFF03B05DF804FB70000020EC
:101540002DE9F0478E689E4282460C4691469846A9
:101550003ED88A8912F4906F3AD0256809696F1ACB
:101560006569022305EB450595FBF3F57B1C4344B8
:101570009D4238BF1D4653050FD5294600F094FB08
:10158000064698B13A46216900F01AFBA38923F474
:10159000906343F08003A38113E02A4600F0E2FB4E
:1015A000064670B92169504600F030FB0C23CAF89A
:1015B0000030A38943F04003A3814FF0FF30BDE822
:1015C000F087266165613E44ED1B2660A5604646B6
:1015D000464528BF464632464946206800F0FBFA99
:1015E000A3689B1BA36023681E4426600020BDE8FF
:1015F000F08700002DE9F04F9DB0804603938B8962
:101600001C060D4616460DD50B695BB9402100F04E
:101610004BFB2860286118B90C23C8F80030CDE0D6
:1016200040236B610023099320238DF82930DFF8D4
:101630009CB130238DF82A3037463C4614F8013BE4
:101640001BB9B7EB060910D003E0252BF9D02746CC
:10165000F3E74B46324629464046FFF771FF01301B
:1016600000F0A780099B4B4409933B78002B00F0C6
:10167000A08000234FF0FF32049307930592069356
:101680008DF853301A930126052221784E4800F038
:1016900047FA671C049B38B14B4A801A06FA00F0DF
:1016A000184304903C46EFE7D90644BF20228DF84A
:1016B00053201A0744BF2B228DF8532022782A2A60
:1016C00003D0079A00210A200BE0039A111D12682B
:1016D0000391002A10DA524243F00200079204906C
:1016E0000BE0274601343B78303B092B03D800FB45
:1016F00002320121F5E701B107923B782E2B1ED172
:101700007B782A2B0AD1039B1A1D1B680392002B9E
:10171000B8BF4FF0FF330237059310E00023059365
:10172000781C19460A24074601303A78303A092ACB
:1017300003D804FB01210123F5E703B1059103223E
:101740003978224800F0ECF940B14023CBEB00009F
:1017500003FA00F0049B18430490013739781C48C1
:101760008DF8281006227E1C00F0DAF988B1194B9A
:1017700033B9039B073323F007030833039314E0C3
:1017800003AB00932A46144B04A94046AFF30080F4
:1017900007E003AB00932A460F4B04A9404600F034
:1017A00093F8B0F1FF3F824603D0099B534409935D
:1017B00042E7AB895B0601D4099801E04FF0FF30A6
:1017C0001DB0BDE8F08F00BF6C1F0008721F00083D
:1017D000761F000800000000411500082DE9F047C1
:1017E00091461F460A698B68DDF820809342B8BF96
:1017F0001346C9F8003091F8432006460C4612B152
:101800000133C9F800302368990642BFD9F8003087
:101810000233C9F80030256815F0060510D104F12F
:10182000190A07E00123524639463046C0470130C5
:101830001AD00135E368D9F800209B1A9D42F1DBEC
:1018400094F843302268003318BF012392060FD565
:10185000E1185A1C302081F84300224494F84510C6
:1018600082F84310023303E04FF0FF30BDE8F08709
:1018700004F1430239463046C0470130F4D02268B3
:10188000D9F80050E36802F00602042A08BF5D1B85
:101890002269A3680CBF25EAE57500259342C4BF01
:1018A0009B1AED184FF000091A344D4509D0012359
:1018B000224639463046C0470130D5D009F10109EA
:1018C000F3E70020BDE8F0872DE9F04317460A7ED4
:1018D00085B06E2A984606460C460C9B01F1430ED5
:1018E00000F0AE8011D8632A22D009D8002A00F077
:1018F000BB80582A40F0CA8081F84520834955E0D2
:10190000642A1ED0692A1CD0C0E0732A00F0B0807F
:1019100009D86F2A2ED0702A40F0B8800A6842F0A9
:1019200020020A603EE0752A24D0782A3AD0ADE041
:101930001A6801F14205111D1960136884F84230DC
:10194000A8E021681A6811F0800F02D0111D1960FB
:1019500008E011F0400F02F10401196002D0B2F961
:10196000003000E01368002B3CDA2D225B4284F843
:10197000432037E021681A6811F0800F02D0111D52
:10198000196007E011F0400F02F10401196001D065
:10199000138800E01368227E5C496F2A14BF0A2274
:1019A00008221BE078225A4984F8452022681868EA
:1019B00012F0800F00F104051D6003D1550601D51A
:1019C000038800E00368D00744BF42F02002226091
:1019D0001BB9226822F0200222601022002084F825
:1019E000430001E049490A226568A560002D08DB33
:1019F000206820F0040020602BB9002D7DD17546B1
:101A00000CE0002B79D07546B3FBF2F002FB1033EB
:101A1000CB5C05F8013D03460028F5D1082A0BD11F
:101A20002368DA0708D5236962689A42DEBF30234B
:101A300005F8013C05F1FF35C5EB0E0323612EE0EF
:101A400008681A68496910F0800F03D0101D1860EB
:101A5000136808E010F0400F02F1040018601368EA
:101A600001D0198000E0196000232361754616E05B
:101A70001A68111D1960156862680021284600F077
:101A80004FF808B1401B6060636804E004F1420550
:101A900084F8422001232361002384F84330CDF8E9
:101AA00000803B4603AA21463046FFF797FE0130EF
:101AB00002D14FF0FF3026E023692A4639463046EE
:101AC000C0470130F5D023689B0710D5002504F1ED
:101AD000190907E001234A4639463046C04701301C
:101AE000E7D00135E368039A9B1A9D42F2DBE06878
:101AF000039B9842B8BF184605E00B7884F8423043
:101B000004F142058AE705B0BDE8F0837D1F0008B7
:101B10008E1F000800000000000000000000000010
:101B200001F0FF01102A2BDB10F0070F08D010F88E
:101B3000013B013A8B422DD010F0070F42B3F6D192
:101B4000F0B441EA012141EA014122F007047FF0AB
:101B500000070023F0E80256083C85EA010586EA02
:101B6000010685FA47F5A3FA87F586FA47F6A5FA3E
:101B700087F68EB9EED1F0BC01F0FF0102F007024A
:101B800032B110F8013B013A83EA010313B1F8D1F5
:101B90000020704701387047002D06BF35460338D6
:101BA000073815F0010F07D1013015F4807F02BF0F
:101BB000013015F4C03F0130F0BC0138704700BF60
:101BC00010B5431E0A44914204D011F8014B03F8AA
:101BD000014FF8E710BD884210B501EB020301D8B0
:101BE000421E0BE09842FBD28118D21AD34204D095
:101BF00013F8014D01F8014DF8E710BD994204D0EA
:101C000011F8014B02F8014FF8E710BD38B5054651
:101C1000002946D051F8043C0C1F002BB8BFE41833
:101C200000F0D6F81F4A1368114613B963601460B8
:101C300032E0A3420ED92268A018834204BF18687C
:101C40005B68636004BF121822600C6024E0A2424B
:101C500003D813465A68002AF9D118681918A14206
:101C60000BD12168014458188242196014D11068C0
:101C700052685A60014419600EE002D90C232B60AF
:101C80000AE021686018824204BF106852686260EE
:101C900004BF091821605C602846BDE8384000F0A8
:101CA00098B838BD4401002070B5CD1C25F003055F
:101CB00008350C2D38BF0C25002D064601DBA94246
:101CC00002D90C23336046E000F082F8234B1C68F5
:101CD0001A462146A1B10B685B1B0ED40B2B03D90E
:101CE0000B60CC18CD501EE08C420DBF63684B6872
:101CF0006360136018BF0C4615E00C464968E9E7BD
:101D0000174C23681BB9304600F052F82060294672
:101D1000304600F04DF8431C18D0C41C24F00304D6
:101D2000A0420DD12560304600F053F804F10B00BD
:101D3000231D20F00700C31A0ED05A42E25070BD96
:101D4000211A304600F034F80130EBD10C23336017
:101D5000304600F03EF8002070BD00BF4401002076
:101D600040010020F8B5074615460E4621B9114638
:101D7000BDE8F840FFF798BF1AB9FFF747FF2846BC
:101D8000F8BD00F027F885420ED929463846FFF7FE
:101D90008BFF044650B131462A46FFF711FF31460A
:101DA0003846FFF733FF01E03046F8BD2046F8BD66
:101DB00038B5064C0023054608462360FEF732FB83
:101DC000431C02D1236803B12B6038BD48010020B9
:101DD0007047704751F8040C0028BEBF091851F82D
:101DE000043CC01804387047537461636B206672FA
:101DF000616D653A0A000000205230203D20202508
:101E00003038580A00000000205231203D202025A3
:101E10003038580A00000000205232203D20202592
:101E20003038580A00000000205233203D20202581
:101E30003038580A0000000020523132203D202561
:101E40003038580A00000000204C52203D20202548
:101E50003038580A00000000205043203D20202543
:101E60003038580A0000000020505352203D2025F1
:101E70003038580A000000004653522F4641523A6B
:101E80000A0000002043465352203D2020253038D0
:101E9000580A00002048465352203D202025303863
:101EA000580A00002044465352203D202025303857
:101EB000580A00002041465352203D20202530384A
:101EC000580A0000204D4D464152203D2025303813
:101ED000580A00002042464152203D20202530383B
:101EE000580A00004D6973630A000000204C522F0D
:101EF0004558435F52455455524E3D202530385881
:101F00000A0000005B486172644661756C745D0A8A
:101F1000000000005B4275734661756C745D0A00D9
:101F20005B55736167654661756C745D0A000000FE
:101F30000000000000000000010203040607080979
:101F400000100140000000000024F4000000000028
:101F500080250000000000000000080004000000D0
:101F6000000000000000000025730000232D302B2E
:101F70002000686C4C00656667454647003031328A
:101F800033343536373839414243444546003031E1
:0F1F900032333435363738396162636465660041
:081FA00038F2FF7F0100000090
:101FA8007856341280000020000000000024F4005D
:101FB8000000000000000000000000000000000019
:101FC8000000000000000000000000000000000009
:101FD80000000000000000000000000000000000F9
:101FE80000000000000000000000000000000000E9
:101FF80000000000000000000000000000000000D9
:1020080000000000000000000000000000000000C8
:082018001000002032547698FC
:040000050800019559
:00000001FF
